{
  "contractName": "TokenFarm",
  "abi": [
    {
      "inputs": [
        {
          "internalType": "contract DappToken",
          "name": "_dappToken",
          "type": "address"
        },
        {
          "internalType": "contract DaiToken",
          "name": "_daiToken",
          "type": "address"
        }
      ],
      "payable": false,
      "stateMutability": "nonpayable",
      "type": "constructor"
    },
    {
      "constant": true,
      "inputs": [],
      "name": "daiToken",
      "outputs": [
        {
          "internalType": "contract DaiToken",
          "name": "",
          "type": "address"
        }
      ],
      "payable": false,
      "stateMutability": "view",
      "type": "function"
    },
    {
      "constant": true,
      "inputs": [],
      "name": "dappToken",
      "outputs": [
        {
          "internalType": "contract DappToken",
          "name": "",
          "type": "address"
        }
      ],
      "payable": false,
      "stateMutability": "view",
      "type": "function"
    },
    {
      "constant": true,
      "inputs": [
        {
          "internalType": "address",
          "name": "",
          "type": "address"
        }
      ],
      "name": "hasStaked",
      "outputs": [
        {
          "internalType": "bool",
          "name": "",
          "type": "bool"
        }
      ],
      "payable": false,
      "stateMutability": "view",
      "type": "function"
    },
    {
      "constant": true,
      "inputs": [
        {
          "internalType": "address",
          "name": "",
          "type": "address"
        }
      ],
      "name": "isStaking",
      "outputs": [
        {
          "internalType": "bool",
          "name": "",
          "type": "bool"
        }
      ],
      "payable": false,
      "stateMutability": "view",
      "type": "function"
    },
    {
      "constant": true,
      "inputs": [],
      "name": "name",
      "outputs": [
        {
          "internalType": "string",
          "name": "",
          "type": "string"
        }
      ],
      "payable": false,
      "stateMutability": "view",
      "type": "function"
    },
    {
      "constant": true,
      "inputs": [
        {
          "internalType": "uint256",
          "name": "",
          "type": "uint256"
        }
      ],
      "name": "stakers",
      "outputs": [
        {
          "internalType": "address",
          "name": "",
          "type": "address"
        }
      ],
      "payable": false,
      "stateMutability": "view",
      "type": "function"
    },
    {
      "constant": true,
      "inputs": [
        {
          "internalType": "address",
          "name": "",
          "type": "address"
        }
      ],
      "name": "stakingBalance",
      "outputs": [
        {
          "internalType": "uint256",
          "name": "",
          "type": "uint256"
        }
      ],
      "payable": false,
      "stateMutability": "view",
      "type": "function"
    },
    {
      "constant": false,
      "inputs": [
        {
          "internalType": "uint256",
          "name": "_amount",
          "type": "uint256"
        }
      ],
      "name": "stakeTokens",
      "outputs": [],
      "payable": false,
      "stateMutability": "nonpayable",
      "type": "function"
    },
    {
      "constant": false,
      "inputs": [],
      "name": "issueToken",
      "outputs": [],
      "payable": false,
      "stateMutability": "nonpayable",
      "type": "function"
    }
  ],
  "bytecode": "0x60806040526040518060400160405280600f81526020017f4441707020546f6b656e204661726d00000000000000000000000000000000008152506000908051906020019061004f929190610123565b5034801561005c57600080fd5b50604051610bca380380610bca8339818101604052604081101561007f57600080fd5b81019080805190602001909291908051906020019092919050505081600160006101000a81548173ffffffffffffffffffffffffffffffffffffffff021916908373ffffffffffffffffffffffffffffffffffffffff16021790555080600260006101000a81548173ffffffffffffffffffffffffffffffffffffffff021916908373ffffffffffffffffffffffffffffffffffffffff16021790555050506101c8565b828054600181600116156101000203166002900490600052602060002090601f016020900481019282601f1061016457805160ff1916838001178555610192565b82800160010185558215610192579182015b82811115610191578251825591602001919060010190610176565b5b50905061019f91906101a3565b5090565b6101c591905b808211156101c15760008160009055506001016101a9565b5090565b90565b6109f3806101d76000396000f3fe608060405234801561001057600080fd5b50600436106100935760003560e01c80637547c7a3116100665780637547c7a314610219578063a1ee8c7814610247578063be22f54614610251578063c93c8f341461029b578063fd5e6dd1146102f757610093565b806306fdde031461009857806345bc78ab1461011b5780635eb186f8146101735780636f49712b146101bd575b600080fd5b6100a0610365565b6040518080602001828103825283818151815260200191508051906020019080838360005b838110156100e05780820151818401526020810190506100c5565b50505050905090810190601f16801561010d5780820380516001836020036101000a031916815260200191505b509250505060405180910390f35b61015d6004803603602081101561013157600080fd5b81019080803573ffffffffffffffffffffffffffffffffffffffff169060200190929190505050610403565b6040518082815260200191505060405180910390f35b61017b61041b565b604051808273ffffffffffffffffffffffffffffffffffffffff1673ffffffffffffffffffffffffffffffffffffffff16815260200191505060405180910390f35b6101ff600480360360208110156101d357600080fd5b81019080803573ffffffffffffffffffffffffffffffffffffffff169060200190929190505050610441565b604051808215151515815260200191505060405180910390f35b6102456004803603602081101561022f57600080fd5b8101908080359060200190929190505050610461565b005b61024f6107a8565b005b61025961093c565b604051808273ffffffffffffffffffffffffffffffffffffffff1673ffffffffffffffffffffffffffffffffffffffff16815260200191505060405180910390f35b6102dd600480360360208110156102b157600080fd5b81019080803573ffffffffffffffffffffffffffffffffffffffff169060200190929190505050610962565b604051808215151515815260200191505060405180910390f35b6103236004803603602081101561030d57600080fd5b8101908080359060200190929190505050610982565b604051808273ffffffffffffffffffffffffffffffffffffffff1673ffffffffffffffffffffffffffffffffffffffff16815260200191505060405180910390f35b60008054600181600116156101000203166002900480601f0160208091040260200160405190810160405280929190818152602001828054600181600116156101000203166002900480156103fb5780601f106103d0576101008083540402835291602001916103fb565b820191906000526020600020905b8154815290600101906020018083116103de57829003601f168201915b505050505081565b60036020528060005260406000206000915090505481565b600160009054906101000a900473ffffffffffffffffffffffffffffffffffffffff1681565b60056020528060005260406000206000915054906101000a900460ff1681565b600081116104d7576040517f08c379a000000000000000000000000000000000000000000000000000000000815260040180806020018281038252601c8152602001807f416d6f756e74207374616b65642063616e6e6f74206265207a65726f0000000081525060200191505060405180910390fd5b600260009054906101000a900473ffffffffffffffffffffffffffffffffffffffff1673ffffffffffffffffffffffffffffffffffffffff166323b872dd3330846040518463ffffffff1660e01b8152600401808473ffffffffffffffffffffffffffffffffffffffff1673ffffffffffffffffffffffffffffffffffffffff1681526020018373ffffffffffffffffffffffffffffffffffffffff1673ffffffffffffffffffffffffffffffffffffffff1681526020018281526020019350505050602060405180830381600087803b1580156105b457600080fd5b505af11580156105c8573d6000803e3d6000fd5b505050506040513d60208110156105de57600080fd5b81019080805190602001909291905050505080600360003373ffffffffffffffffffffffffffffffffffffffff1673ffffffffffffffffffffffffffffffffffffffff16815260200190815260200160002060008282540192505081905550600460003373ffffffffffffffffffffffffffffffffffffffff1673ffffffffffffffffffffffffffffffffffffffff16815260200190815260200160002060009054906101000a900460ff166106f55760063390806001815401808255809150509060018203906000526020600020016000909192909190916101000a81548173ffffffffffffffffffffffffffffffffffffffff021916908373ffffffffffffffffffffffffffffffffffffffff160217905550505b6001600460003373ffffffffffffffffffffffffffffffffffffffff1673ffffffffffffffffffffffffffffffffffffffff16815260200190815260200160002060006101000a81548160ff0219169083151502179055506001600560003373ffffffffffffffffffffffffffffffffffffffff1673ffffffffffffffffffffffffffffffffffffffff16815260200190815260200160002060006101000a81548160ff02191690831515021790555050565b60008090505b600680549050811015610939576000600682815481106107ca57fe5b9060005260206000200160009054906101000a900473ffffffffffffffffffffffffffffffffffffffff1690506000600360008373ffffffffffffffffffffffffffffffffffffffff1673ffffffffffffffffffffffffffffffffffffffff168152602001908152602001600020549050600081111561092a57600160009054906101000a900473ffffffffffffffffffffffffffffffffffffffff1673ffffffffffffffffffffffffffffffffffffffff1663a9059cbb83836040518363ffffffff1660e01b8152600401808373ffffffffffffffffffffffffffffffffffffffff1673ffffffffffffffffffffffffffffffffffffffff16815260200182815260200192505050602060405180830381600087803b1580156108ed57600080fd5b505af1158015610901573d6000803e3d6000fd5b505050506040513d602081101561091757600080fd5b8101908080519060200190929190505050505b505080806001019150506107ae565b50565b600260009054906101000a900473ffffffffffffffffffffffffffffffffffffffff1681565b60046020528060005260406000206000915054906101000a900460ff1681565b6006818154811061098f57fe5b906000526020600020016000915054906101000a900473ffffffffffffffffffffffffffffffffffffffff168156fea265627a7a72315820503612623d49e0a45351506546de6b7d0a31248f1d0d8dc1ba3843ad7cb1629664736f6c63430005100032",
  "source": "pragma solidity ^0.5.0;\r\n\r\n// Import ERC-20 tokens source code so that this contract can use them\r\nimport \"./DappToken.sol\";\r\nimport \"./DaiToken.sol\";\r\n\r\n// Main Yield Farming Smart Contract\r\ncontract TokenFarm {\r\n  string public name = \"DApp Token Farm\";\r\n  DappToken public dappToken;\r\n  DaiToken public daiToken;\r\n\r\n  mapping(address => uint256) public stakingBalance;\r\n  mapping(address => bool) public hasStaked;\r\n  mapping(address => bool) public isStaking;\r\n  address[] public stakers;\r\n\r\n  constructor(DappToken _dappToken, DaiToken _daiToken) public {\r\n    // Store depolyed contract for each of the ERC-20 tokens\r\n    dappToken = _dappToken;\r\n    daiToken = _daiToken;\r\n  }\r\n\r\n  // Stake mDAI Tokens (Deposit)\r\n  function stakeTokens(uint _amount) public {\r\n    // Require amount being staked is greater than zero\r\n    require(_amount > 0, \"Amount staked cannot be zero\");\r\n\r\n    // Transfer mDAI to this contract\r\n    daiToken.transferFrom(msg.sender, address(this), _amount);\r\n    \r\n    // Update the staking balance for the sender\r\n    stakingBalance[msg.sender] += _amount;\r\n    \r\n    // Add user to stakers array only if they haven't staked already\r\n    if(!hasStaked[msg.sender]) {\r\n      stakers.push(msg.sender);\r\n    }\r\n\r\n    // Update staking status\r\n    hasStaked[msg.sender] = true;\r\n    isStaking[msg.sender] = true;\r\n  }\r\n\r\n\r\n\r\n  // Unstaking mDAI Tokens (Withdraw)\r\n\r\n\r\n  // Issuing DApp Tokens (Interest rewards)\r\n  function issueToken() public {\r\n    // Loop over stakers array\r\n    for (uint i = 0; i < stakers.length; i++) {\r\n      address recipient = stakers[i];\r\n      uint recBalance = stakingBalance[recipient];\r\n      if (recBalance > 0 ) {\r\n        dappToken.transfer(recipient, recBalance);\r\n      }\r\n\r\n\r\n    }\r\n\r\n\r\n\r\n\r\n  }\r\n\r\n\r\n\r\n\r\n}\r\n",
  "sourcePath": "C:\\Users\\Mark\\Documents\\VSCodeProjects\\dappu_defi\\src\\contracts\\TokenFarm.sol",
  "compiler": {
    "name": "solc",
    "version": "0.5.16+commit.9c3226ce.Emscripten.clang"
  },
  "schemaVersion": "3.2.3",
  "updatedAt": "2022-07-27T15:48:13.916Z",
  "devdoc": {
    "methods": {}
  },
  "userdoc": {
    "methods": {}
  }
}